:100000000C942A000C9447000C9447000C94470071
:100010000C9447000C9447000C9447000C94470044
:100020000C9447000C9447000C9447000C94470034
:100030000C9447000C9447000C9447000C94470024
:100040000C9447000C9447000C9447000C94470014
:100050000C94470011241FBECFE5D8E0DEBFCDBF12
:1000600010E0A0E6B0E0E0EEFAE002C005900D92EC
:10007000A237B107D9F710E0A2E7B0E001C01D92A6
:10008000A13BB107E1F70E9413030C946E050C9499
:1000900000008D9ABA9ABB9A8C9AB89AB99A959898
:1000A000C298C3989498C098C198949A959A8A9A3D
:1000B0008B9A929A939A1ABA8FEF8BBBA09AA19AB5
:1000C000A29AA39AA498A598A698A79885BB0895E4
:1000D00081EA8FBD8AE08EBD08952F923F924F92A4
:1000E0005F926F927F928F929F92AF92BF92CF92C8
:1000F000DF92EF92FF920F931F93DF93CF9300D085
:1001000000D0CDB7DEB710928A001092890010920D
:10011000A2001092A1001092AA001092A9001092C1
:100120009600109295001092A00010929F001092DD
:100130008600109285001092AC001092AB001092D5
:10014000980010929700C89B09C082E780936000D6
:1001500081E090E09093980080939700C99B06C03F
:1001600081E090E09093AC008093AB00CA9B06C006
:1001700081E090E09093860080938500CB9B06C041
:1001800081E090E09093A00080939F00CC9B06C0FC
:1001900081E090E09093960080939500CD9B06C0FF
:1001A00081E090E09093AA008093A900CE9B06C0C6
:1001B00081E090E09093A2008093A100CF9B09C0C2
:1001C0008CE68093600081E090E090938A008093B9
:1001D00089008091730090917400A0917500B09196
:1001E00076008093770090937800A0937900B09385
:1001F0007A008091890090918A009A838983E090A7
:10020000A900F090AA002090A1003090A200809058
:100210009F009090A0000091950010919600609032
:10022000AB007090AC004090850050908600E0914B
:100230009700F0919800FC83EB83B701660F771F5E
:100240006E0D7F1D9101220F331F620F731F680F08
:10025000791F9401220F331F220F331F280D391DE0
:10026000620F731F9801220F331F220F331F620F7B
:10027000731F930153E0220F331F5A95E1F726199C
:100280003709620F731F9201220F331F240D351D92
:10029000220F331F620F731F9F0183E0220F331F52
:1002A0008A95E1F7620F731F80E090E00E947D0461
:1002B0005B016C0189819A81E80EF91EE20CF31C46
:1002C000E80CF91CE00EF11EE60CF71CE40CF51C22
:1002D000EB81FC81EE0EFF1E00E010E0C801B701CB
:1002E0000E947D049B01AC01C601B5010E94E90397
:1002F00020E030E040E950E40E9484036093730002
:100300007093740080937500909376000F900F9017
:100310000F900F90CF91DF911F910F91FF90EF9071
:10032000DF90CF90BF90AF909F908F907F906F9015
:100330005F904F903F902F9008952F923F924F9251
:100340005F926F927F928F929F92AF92BF92CF9265
:10035000DF92EF92FF920F931F93CF93DF93109250
:100360007C0010927B007DEC272E312C60E9462E1C
:1003700061E0562E2FC14423F1F70E946D002091B9
:10038000A1003091A2008091890090918A00280FED
:10039000391F8091A9009091AA00280F391F8091E0
:1003A000950090919600280F391F80919F009091A1
:1003B000A000280F391F8091850090918600280F9A
:1003C000391F8091AB009091AC00280F391F8091AC
:1003D000970090919800280F391F21153105B1F42D
:1003E00080916000823721F4C098C198C29A06C0FB
:1003F0008C3609F0EFC0C098C19AC298C39880911A
:100400006100909162009BBD8ABDE2C02830310539
:1004100081F580917B0090917C00019690937C0007
:1004200080937B0020917D0030917E002817390752
:100430002CF4C098C198C298C398DAC08217930769
:1004400061F4C29AC398C098C19880E995E6F20118
:100450003197F1F70197D9F7BDC0C098C19AC29AF8
:10046000C39880E197E2F2013197F1F70197D9F74C
:10047000B1C0E0907300F09074000091750010918D
:100480007600C801B7012091650030916600409167
:100490006700509168000E940B053B014C0160937E
:1004A000AD007093AE008093AF009093B000C80190
:1004B000B7012091A3003091A4004091A500509174
:1004C000A6000E9485032091690030916A00409146
:1004D0006B0050916C000E940B055B016C016093F6
:1004E000A3007093A4008093A5009093A600C80178
:1004F000B7012091770030917800409179005091B8
:100500007A000E94840320916D0030916E0040912A
:100510006F00509170000E940B057B018C0160936D
:100520008100709382008093830090938400C401C3
:10053000B301A60195010E948503A80197010E94BD
:1005400085037B018C016093990070939A008093DE
:100550009B0090939C00609163007091640080E028
:1005600090E00E947D045B016C01A80197010E944C
:1005700084030E945104EB0170939E0060939D00E0
:10058000C601B501A80197010E9485030E9451048C
:100590007093A8006093A700C29AC398C098C19AAC
:1005A0006E3C710520F03092A8002092A700CE3C4E
:1005B000D10520F030929E0020929D0080919D00F8
:1005C00090919E009BBD8ABD8091A7009091A8004C
:1005D00099BD88BD4091720020917B0030917C00D4
:1005E00080917F00909180002817390709F0C3CED1
:1005F000C098C198C298C39880E49CE90197F1F72C
:10060000DF91CF911F910F91FF90EF90DF90CF90EE
:10061000BF90AF909F908F907F906F905F904F9022
:100620003F902F900895BF92CF92DF92EF92FF926A
:100630000F931F93CF93DF930E94490081EA8FBDF0
:100640008AE08EBDBB24BA94F1E0CF2ED12C02E01B
:1006500010E0C0E9D1E0E3E0EE2EF12CB5BAA898A5
:10066000A998AA98AB9883B390E0807F9070803F60
:100670009105C9F39093880080938700B5BA40979D
:10068000A9F4D0927E00C0927D0010938000009368
:100690007F000E949D01A89AA998AA98AB9880E132
:1006A00097E2FE013197F1F70197D9F78091870022
:1006B00090918800809791F610937E0000937D00C2
:1006C000F0928000E0927F000E949D01A89AA99874
:1006D000AA98AB9880E197E2FE013197F1F7019774
:1006E000D9F7BCCFC298C39A0895C098C19A08950B
:1006F000C29AC3980895C09AC1980895C298C398A1
:100700000895C098C19808955058BB27AA270ED0C5
:1007100048C139D130F03ED120F031F49F3F11F47F
:100720001EF42EC10EF4E095E7FB24C1E92F4AD157
:1007300080F3BA17620773078407950718F071F4FE
:100740009EF562C10EF4E0950B2EBA2FA02D0B0181
:10075000B90190010C01CA01A0011124FF27591B06
:1007600099F0593F50F4503E68F11A16F040A22F0C
:10077000232F342F4427585FF3CF4695379527957D
:10078000A795F0405395C9F77EF41F16BA0B620B7C
:10079000730B840BBAF09150A1F0FF0FBB1F661FC3
:1007A000771F881FC2F70EC0BA0F621F731F841F06
:1007B00048F4879577956795B795F7959E3F08F02C
:1007C000B3CF9395880F08F09927EE0F97958795EB
:1007D00008950CD0E6C0DED040F0D5D030F021F442
:1007E0005F3F19F0C7C0511110C1CAC0EBD098F3D8
:1007F0009923C9F35523B1F3951B550BBB27AA27A2
:1008000062177307840738F09F5F5F4F220F331F13
:10081000441FAA1FA9F333D00E2E3AF0E0E830D0DF
:1008200091505040E695001CCAF729D0FE2F27D0E2
:10083000660F771F881FBB1F261737074807AB07B0
:10084000B0E809F0BB0B802DBF01FF2793585F4F25
:100850002AF09E3F510568F08DC0D7C05F3FECF392
:10086000983EDCF3869577956795B795F7959F5FEA
:10087000C9F7880F911D9695879597F90895E1E03E
:10088000660F771F881FBB1F621773078407BA079D
:1008900020F0621B730B840BBA0BEE1F88F7E095F8
:1008A000089598D088F09F5790F0B92F9927B751A5
:1008B000A0F0D1F0660F771F881F991F1AF0BA9524
:1008C000C9F712C0B13081F09FD0B1E008959CC04B
:1008D000672F782F8827B85F39F0B93FCCF386951A
:1008E00077956795B395D9F73EF490958095709577
:1008F00061957F4F8F4F9F4F0895E89409C097FBF4
:100900003EF490958095709561957F4F8F4F9F4FE6
:100910009923A9F0F92F96E9BB279395F69587952A
:1009200077956795B795F111F8CFFAF4BB0F11F4ED
:1009300060FF1BC06F5F7F4F8F4F9F4F16C0882394
:1009400011F096E911C0772321F09EE8872F762FCA
:1009500005C0662371F096E8862F70E060E02AF00B
:100960009A95660F771F881FDAF7880F96958795F7
:1009700097F9089597F99F6780E870E060E008951F
:100980009FEF80EC089500240A94161617061806A7
:100990000906089500240A94121613061406050683
:1009A0000895092E0394000C11F4882352F0BB0F14
:1009B00040F4BF2B11F460FF04C06F5F7F4F8F4F77
:1009C0009F4F089557FD9058440F551F59F05F3FB2
:1009D00071F04795880F97FB991F61F09F3F79F061
:1009E00087950895121613061406551FF2CF4695E3
:1009F000F1DF08C0161617061806991FF1CF869565
:100A00007105610508940895E894BB276627772748
:100A1000CB0197F908950BD0C4CFB5DF28F0BADF2A
:100A200018F0952309F0A6CFABCF1124EECFCADF83
:100A3000A0F3959FD1F3950F50E0551F629FF001F1
:100A4000729FBB27F00DB11D639FAA27F00DB11D4A
:100A5000AA1F649F6627B00DA11D661F829F2227D3
:100A6000B00DA11D621F739FB00DA11D621F839F5A
:100A7000A00D611D221F749F3327A00D611D231F30
:100A8000849F600D211D822F762F6A2F11249F577E
:100A900050408AF0E1F088234AF0EE0FFF1FBB1FA1
:100AA000661F771F881F91505040A9F79E3F510540
:100AB00070F060CFAACF5F3FECF3983EDCF38695F1
:100AC00077956795B795F795E7959F5FC1F7FE2BEB
:100AD000880F911D9695879597F90895F894FFCF03
:100AE00072CD00CD000000B0419A99193F0000403E
:020AF00040665E
:00000001FF
